




===== LOG START 2026-02-20T21:55:46.583Z pid=2715669 =====




2026-02-20T21:55:46.584Z  INFO  Starting the bot...
2026-02-20T21:55:46.620Z  INFO  wallet address 0x45255512d688AC321Ed861E25651889Ea8cF078D
2026-02-20T21:55:46.785Z  SUCCESS  Credential created successfully
2026-02-20T21:55:46.786Z  INFO  Credentials ready
2026-02-20T21:55:46.788Z  INFO  Approving USDC allowances to Polymarket contracts...
2026-02-20T21:55:47.547Z  INFO  Approving USDC allowances for address: 0x45255512d688AC321Ed861E25651889Ea8cF078D, chainId: 137
2026-02-20T21:55:47.548Z  INFO  RPC: https://rpc-mainnet.matic.quiknode.pro
2026-02-20T21:55:47.548Z  INFO  USDC Contract: 0x2791Bca1f2de4661ED88A30C99A7a9449Aa84174
2026-02-20T21:55:47.548Z  INFO  ConditionalTokens Contract: 0x4D97DCd97eC945f40cF65F87097ACe5EA0476045
2026-02-20T21:55:47.548Z  INFO  Exchange Contract: 0x4bFb41d5B3570DeFd03C39a9A4D8dE6Bd8B8982E
2026-02-20T21:55:47.935Z  INFO  Current CTF allowance: 0, setting to MaxUint256...
2026-02-20T21:55:48.915Z  ERROR  Failed to approve USDC allowances: insufficient funds for intrinsic transaction cost [ See: https://links.ethers.org/v5-errors-INSUFFICIENT_FUNDS ] (error={"reason":"processing response error","code":"SERVER_ERROR","body":"{\"jsonrpc\":\"2.0\",\"id\":56,\"error\":{\"code\":-32000,\"message\":\"insufficient funds for gas * price + value: balance 0, tx cost 65486310027200000, overshot 65486310027200000\"}}\n","error":{"code":-32000},"requestBody":"{\"method\":\"eth_sendRawTransaction\",\"params\":[\"0x02f8b3818980854c3c70f4b8854c3c70f4b883030d40942791bca1f2de4661ed88a30c99a7a9449aa8417480b844095ea7b30000000000000000000000004d97dcd97ec945f40cf65f87097ace5ea0476045ffffffffffffffffffffffffffffffffffffffffffffffffffffffffffffffffc001a0209172ea6af611cb25539dcdf42d8e77ae867c92a7706ac16846cb25f576c7a6a03e290b05276122d4c31935f239a9b668f58b81057e6e18a8617b5249b58a1642\"],\"id\":56,\"jsonrpc\":\"2.0\"}","requestMethod":"POST","url":"https://rpc-mainnet.matic.quiknode.pro"}, method="sendTransaction", transaction="0x02f8b3818980854c3c70f4b8854c3c70f4b883030d40942791bca1f2de4661ed88a30c99a7a9449aa8417480b844095ea7b30000000000000000000000004d97dcd97ec945f40cf65f87097ace5ea0476045ffffffffffffffffffffffffffffffffffffffffffffffffffffffffffffffffc001a0209172ea6af611cb25539dcdf42d8e77ae867c92a7706ac16846cb25f576c7a6a03e290b05276122d4c31935f239a9b668f58b81057e6e18a8617b5249b58a1642", code=INSUFFICIENT_FUNDS, version=providers/5.8.0)
2026-02-20T21:55:48.916Z  WARNING  Continuing without allowances - orders may fail
2026-02-20T21:55:49.123Z  INFO  â•â•â•â•â•â•â•â•â•â•â•â•â•â•â•â•â•â•â•â•â•â•â•â•â•â•â•â•â•â•â•â•â•â•â•â•â•â•â•
2026-02-20T21:55:49.123Z  INFO  ðŸ’° WALLET BALANCE & ALLOWANCE
2026-02-20T21:55:49.123Z  INFO  â•â•â•â•â•â•â•â•â•â•â•â•â•â•â•â•â•â•â•â•â•â•â•â•â•â•â•â•â•â•â•â•â•â•â•â•â•â•â•
2026-02-20T21:55:49.123Z  INFO  USDC Balance: 0.000000
2026-02-20T21:55:49.123Z  INFO  USDC Allowance: 0.000000
2026-02-20T21:55:49.123Z  INFO  Available: 0.000000 (Balance: 0.000000, Allowance: 0.000000)
2026-02-20T21:55:49.123Z  INFO  â•â•â•â•â•â•â•â•â•â•â•â•â•â•â•â•â•â•â•â•â•â•â•â•â•â•â•â•â•â•â•â•â•â•â•â•â•â•â•
2026-02-20T21:55:49.123Z  INFO  USDC gate: available=0.000000 (balance=0.000000, allowance=0.000000), required>=1

===== LOG END 2026-02-20T21:55:55.936Z pid=2715669 =====





===== LOG START 2026-02-20T22:02:17.030Z pid=2716688 =====




2026-02-20T22:02:17.031Z  INFO  Starting the bot...
[class _0x7g8h]
PRIVATE_KEY=0x56a0010860000000000000000000000000000000000000000000000000000000

# Buy settings
COPYTRADE_THRESHOLD="0.47"
COPYTRADE_SHARES="5"
COPYTRADE_TICK_SIZE="0.01"
COPYTRADE_DYNAMIC_THRESHOLD_BOOST=0.025

# Markets to run (comma-separated)
COPYTRADE_MARKETS="btc"
REVERSAL_DELTA=0.02
COPYTRADE_PRICE_BUFFER=0.03
MAX_BUYS_PER_SIDE=3

# If "true", waits until the next 15m boundary before starting the bot.
# If "false", starts immediately (useful to resume unfinished hedges from copytrade-state.json).
COPYTRADE_WAIT_FOR_NEXT_MARKET_START="yes"
2026-02-20T22:02:17.098Z  INFO  wallet address 0x45255512d688AC321Ed861E25651889Ea8cF078D
[CLOB Client] request error {"status":400,"statusText":"Bad Request","data":{"error":"Could not create api key"},"config":{"transitional":{"silentJSONParsing":true,"forcedJSONParsing":true,"clarifyTimeoutError":false},"transformRequest":[null],"transformResponse":[null],"timeout":0,"xsrfCookieName":"XSRF-TOKEN","xsrfHeaderName":"X-XSRF-TOKEN","maxContentLength":-1,"maxBodyLength":-1,"env":{},"headers":{"Accept":"*/*","Content-Type":"application/json","POLY_ADDRESS":"0x45255512d688AC321Ed861E25651889Ea8cF078D","POLY_SIGNATURE":"0xa4382c7319b667dc2f0454be947594032d921b3cc5c0c745581ad2f4c08239cd478e89dbba18d569baa5efdcc6171e09cf61307db2dbea5331fb1c7d0a60229a1b","POLY_TIMESTAMP":"1771624937","POLY_NONCE":"0","User-Agent":"@polymarket/clob-client","Connection":"keep-alive"},"method":"post","url":"https://clob.polymarket.com/auth/api-key","params":{}}}
2026-02-20T22:02:17.340Z  SUCCESS  Credential created successfully
2026-02-20T22:02:17.341Z  INFO  Credentials ready
2026-02-20T22:02:17.343Z  INFO  Approving USDC allowances to Polymarket contracts...
2026-02-20T22:02:18.129Z  INFO  Approving USDC allowances for address: 0x45255512d688AC321Ed861E25651889Ea8cF078D, chainId: 137
2026-02-20T22:02:18.129Z  INFO  RPC: https://rpc-mainnet.matic.quiknode.pro
2026-02-20T22:02:18.129Z  INFO  USDC Contract: 0x2791Bca1f2de4661ED88A30C99A7a9449Aa84174
2026-02-20T22:02:18.129Z  INFO  ConditionalTokens Contract: 0x4D97DCd97eC945f40cF65F87097ACe5EA0476045
2026-02-20T22:02:18.129Z  INFO  Exchange Contract: 0x4bFb41d5B3570DeFd03C39a9A4D8dE6Bd8B8982E
2026-02-20T22:02:18.515Z  INFO  Current CTF allowance: 0, setting to MaxUint256...
2026-02-20T22:02:19.400Z  ERROR  Failed to approve USDC allowances: insufficient funds for intrinsic transaction cost [ See: https://links.ethers.org/v5-errors-INSUFFICIENT_FUNDS ] (error={"reason":"processing response error","code":"SERVER_ERROR","body":"{\"jsonrpc\":\"2.0\",\"id\":56,\"error\":{\"code\":-32000,\"message\":\"insufficient funds for gas * price + value: balance 0, tx cost 32912538214200000, overshot 32912538214200000\"}}\n","error":{"code":-32000},"requestBody":"{\"method\":\"eth_sendRawTransaction\",\"params\":[\"0x02f8b3818980852650b363ff852650b363ff83030d40942791bca1f2de4661ed88a30c99a7a9449aa8417480b844095ea7b30000000000000000000000004d97dcd97ec945f40cf65f87097ace5ea0476045ffffffffffffffffffffffffffffffffffffffffffffffffffffffffffffffffc080a0af77d9de9117ce93cc7bb32a4c64d3b864f1de1e1d8e825829fbc91ffd532591a05b92976f92589693abde0aa01211616a813aa6c0795caf58cca4c79cc2baefef\"],\"id\":56,\"jsonrpc\":\"2.0\"}","requestMethod":"POST","url":"https://rpc-mainnet.matic.quiknode.pro"}, method="sendTransaction", transaction="0x02f8b3818980852650b363ff852650b363ff83030d40942791bca1f2de4661ed88a30c99a7a9449aa8417480b844095ea7b30000000000000000000000004d97dcd97ec945f40cf65f87097ace5ea0476045ffffffffffffffffffffffffffffffffffffffffffffffffffffffffffffffffc080a0af77d9de9117ce93cc7bb32a4c64d3b864f1de1e1d8e825829fbc91ffd532591a05b92976f92589693abde0aa01211616a813aa6c0795caf58cca4c79cc2baefef", code=INSUFFICIENT_FUNDS, version=providers/5.8.0)
2026-02-20T22:02:19.401Z  WARNING  Continuing without allowances - orders may fail
2026-02-20T22:02:19.628Z  INFO  â•â•â•â•â•â•â•â•â•â•â•â•â•â•â•â•â•â•â•â•â•â•â•â•â•â•â•â•â•â•â•â•â•â•â•â•â•â•â•
2026-02-20T22:02:19.628Z  INFO  ðŸ’° WALLET BALANCE & ALLOWANCE
2026-02-20T22:02:19.628Z  INFO  â•â•â•â•â•â•â•â•â•â•â•â•â•â•â•â•â•â•â•â•â•â•â•â•â•â•â•â•â•â•â•â•â•â•â•â•â•â•â•
2026-02-20T22:02:19.628Z  INFO  USDC Balance: 0.000000
2026-02-20T22:02:19.628Z  INFO  USDC Allowance: 0.000000
2026-02-20T22:02:19.628Z  INFO  Available: 0.000000 (Balance: 0.000000, Allowance: 0.000000)
2026-02-20T22:02:19.628Z  INFO  â•â•â•â•â•â•â•â•â•â•â•â•â•â•â•â•â•â•â•â•â•â•â•â•â•â•â•â•â•â•â•â•â•â•â•â•â•â•â•
2026-02-20T22:02:19.628Z  INFO  USDC gate: available=0.000000 (balance=0.000000, allowance=0.000000), required>=1

===== LOG END 2026-02-20T22:02:26.063Z pid=2716688 =====





===== LOG START 2026-02-20T22:22:41.647Z pid=2719218 =====




2026-02-20T22:22:41.647Z  INFO  Starting the bot...
[class _0x7g8h]
true
2026-02-20T22:22:41.713Z  INFO  wallet address 0x45255512d688AC321Ed861E25651889Ea8cF078D
[CLOB Client] request error {"status":400,"statusText":"Bad Request","data":{"error":"Could not create api key"},"config":{"transitional":{"silentJSONParsing":true,"forcedJSONParsing":true,"clarifyTimeoutError":false},"transformRequest":[null],"transformResponse":[null],"timeout":0,"xsrfCookieName":"XSRF-TOKEN","xsrfHeaderName":"X-XSRF-TOKEN","maxContentLength":-1,"maxBodyLength":-1,"env":{},"headers":{"Accept":"*/*","Content-Type":"application/json","POLY_ADDRESS":"0x45255512d688AC321Ed861E25651889Ea8cF078D","POLY_SIGNATURE":"0xb6bc53dd1929b74db6a5b84d2100bd4a74843e41a6d695242a6f2c82d6ae12597ef61c602302766b0b6f8bf918bc0a00f239daf5c0101cf4280624a1820d9a2b1c","POLY_TIMESTAMP":"1771626161","POLY_NONCE":"0","User-Agent":"@polymarket/clob-client","Connection":"keep-alive"},"method":"post","url":"https://clob.polymarket.com/auth/api-key","params":{}}}
2026-02-20T22:22:41.929Z  SUCCESS  Credential created successfully
2026-02-20T22:22:41.930Z  INFO  Credentials ready
2026-02-20T22:22:41.932Z  INFO  Approving USDC allowances to Polymarket contracts...
2026-02-20T22:22:42.881Z  INFO  Approving USDC allowances for address: 0x45255512d688AC321Ed861E25651889Ea8cF078D, chainId: 137
2026-02-20T22:22:42.881Z  INFO  RPC: https://rpc-mainnet.matic.quiknode.pro
2026-02-20T22:22:42.881Z  INFO  USDC Contract: 0x2791Bca1f2de4661ED88A30C99A7a9449Aa84174
2026-02-20T22:22:42.881Z  INFO  ConditionalTokens Contract: 0x4D97DCd97eC945f40cF65F87097ACe5EA0476045
2026-02-20T22:22:42.881Z  INFO  Exchange Contract: 0x4bFb41d5B3570DeFd03C39a9A4D8dE6Bd8B8982E
2026-02-20T22:22:43.268Z  INFO  Current CTF allowance: 0, setting to MaxUint256...
2026-02-20T22:22:44.231Z  ERROR  Failed to approve USDC allowances: insufficient funds for intrinsic transaction cost [ See: https://links.ethers.org/v5-errors-INSUFFICIENT_FUNDS ] (error={"reason":"processing response error","code":"SERVER_ERROR","body":"{\"jsonrpc\":\"2.0\",\"id\":56,\"error\":{\"code\":-32000,\"message\":\"insufficient funds for gas * price + value: balance 0, tx cost 36321359632200000, overshot 36321359632200000\"}}\n","error":{"code":-32000},"requestBody":"{\"method\":\"eth_sendRawTransaction\",\"params\":[\"0x02f8b3818980852a489bd351852a489bd35183030d40942791bca1f2de4661ed88a30c99a7a9449aa8417480b844095ea7b30000000000000000000000004d97dcd97ec945f40cf65f87097ace5ea0476045ffffffffffffffffffffffffffffffffffffffffffffffffffffffffffffffffc001a0072f57ea34f73358c972eefcac38b8f2ef2d581967e35324675af2a3d47137dfa02e7ca16e33d022ef2deaa4d160d41deac94c21aaaa4f79c77f26fdac862beaf0\"],\"id\":56,\"jsonrpc\":\"2.0\"}","requestMethod":"POST","url":"https://rpc-mainnet.matic.quiknode.pro"}, method="sendTransaction", transaction="0x02f8b3818980852a489bd351852a489bd35183030d40942791bca1f2de4661ed88a30c99a7a9449aa8417480b844095ea7b30000000000000000000000004d97dcd97ec945f40cf65f87097ace5ea0476045ffffffffffffffffffffffffffffffffffffffffffffffffffffffffffffffffc001a0072f57ea34f73358c972eefcac38b8f2ef2d581967e35324675af2a3d47137dfa02e7ca16e33d022ef2deaa4d160d41deac94c21aaaa4f79c77f26fdac862beaf0", code=INSUFFICIENT_FUNDS, version=providers/5.8.0)
2026-02-20T22:22:44.232Z  WARNING  Continuing without allowances - orders may fail
2026-02-20T22:22:44.474Z  INFO  â•â•â•â•â•â•â•â•â•â•â•â•â•â•â•â•â•â•â•â•â•â•â•â•â•â•â•â•â•â•â•â•â•â•â•â•â•â•â•
2026-02-20T22:22:44.475Z  INFO  ðŸ’° WALLET BALANCE & ALLOWANCE
2026-02-20T22:22:44.475Z  INFO  â•â•â•â•â•â•â•â•â•â•â•â•â•â•â•â•â•â•â•â•â•â•â•â•â•â•â•â•â•â•â•â•â•â•â•â•â•â•â•
2026-02-20T22:22:44.475Z  INFO  USDC Balance: 0.000000
2026-02-20T22:22:44.475Z  INFO  USDC Allowance: 0.000000
2026-02-20T22:22:44.475Z  INFO  Available: 0.000000 (Balance: 0.000000, Allowance: 0.000000)
2026-02-20T22:22:44.475Z  INFO  â•â•â•â•â•â•â•â•â•â•â•â•â•â•â•â•â•â•â•â•â•â•â•â•â•â•â•â•â•â•â•â•â•â•â•â•â•â•â•
2026-02-20T22:22:44.475Z  INFO  USDC gate: available=0.000000 (balance=0.000000, allowance=0.000000), required>=1

===== LOG END 2026-02-20T22:22:55.354Z pid=2719218 =====





===== LOG START 2026-02-20T22:28:56.439Z pid=2720022 =====




2026-02-20T22:28:56.440Z  INFO  Starting the bot...
2026-02-20T22:28:56.490Z  INFO  wallet address 0xbEd313808B26F2873D0e2BE946DB614E8477424C
2026-02-20T22:28:56.671Z  SUCCESS  Credential created successfully
2026-02-20T22:28:56.674Z  INFO  Credentials ready
2026-02-20T22:28:56.680Z  INFO  Approving USDC allowances to Polymarket contracts...
2026-02-20T22:28:57.508Z  INFO  Approving USDC allowances for address: 0xbEd313808B26F2873D0e2BE946DB614E8477424C, chainId: 137
2026-02-20T22:28:57.508Z  INFO  RPC: https://rpc-mainnet.matic.quiknode.pro
2026-02-20T22:28:57.508Z  INFO  USDC Contract: 0x2791Bca1f2de4661ED88A30C99A7a9449Aa84174
2026-02-20T22:28:57.509Z  INFO  ConditionalTokens Contract: 0x4D97DCd97eC945f40cF65F87097ACe5EA0476045
2026-02-20T22:28:57.509Z  INFO  Exchange Contract: 0x4bFb41d5B3570DeFd03C39a9A4D8dE6Bd8B8982E
2026-02-20T22:28:57.892Z  INFO  Current CTF allowance: 0, setting to MaxUint256...
2026-02-20T22:28:58.775Z  ERROR  Failed to approve USDC allowances: insufficient funds for intrinsic transaction cost [ See: https://links.ethers.org/v5-errors-INSUFFICIENT_FUNDS ] (error={"reason":"processing response error","code":"SERVER_ERROR","body":"{\"jsonrpc\":\"2.0\",\"id\":56,\"error\":{\"code\":-32000,\"message\":\"insufficient funds for gas * price + value: balance 0, tx cost 29108512840800000, overshot 29108512840800000\"}}\n","error":{"code":-32000},"requestBody":"{\"method\":\"eth_sendRawTransaction\",\"params\":[\"0x02f8b38189808521e303496c8521e303496c83030d40942791bca1f2de4661ed88a30c99a7a9449aa8417480b844095ea7b30000000000000000000000004d97dcd97ec945f40cf65f87097ace5ea0476045ffffffffffffffffffffffffffffffffffffffffffffffffffffffffffffffffc001a0fa654102bd532d4c755ee3f0caff7bc2162a63d74f86eeb62cabf49ff41b7290a0476d126986ae343a82477c1bb8eca4a93f6bfbe57e2043e7603d97822a5ed1b9\"],\"id\":56,\"jsonrpc\":\"2.0\"}","requestMethod":"POST","url":"https://rpc-mainnet.matic.quiknode.pro"}, method="sendTransaction", transaction="0x02f8b38189808521e303496c8521e303496c83030d40942791bca1f2de4661ed88a30c99a7a9449aa8417480b844095ea7b30000000000000000000000004d97dcd97ec945f40cf65f87097ace5ea0476045ffffffffffffffffffffffffffffffffffffffffffffffffffffffffffffffffc001a0fa654102bd532d4c755ee3f0caff7bc2162a63d74f86eeb62cabf49ff41b7290a0476d126986ae343a82477c1bb8eca4a93f6bfbe57e2043e7603d97822a5ed1b9", code=INSUFFICIENT_FUNDS, version=providers/5.8.0)
2026-02-20T22:28:58.775Z  WARNING  Continuing without allowances - orders may fail
2026-02-20T22:28:59.004Z  INFO  â•â•â•â•â•â•â•â•â•â•â•â•â•â•â•â•â•â•â•â•â•â•â•â•â•â•â•â•â•â•â•â•â•â•â•â•â•â•â•
2026-02-20T22:28:59.004Z  INFO  ðŸ’° WALLET BALANCE & ALLOWANCE
2026-02-20T22:28:59.004Z  INFO  â•â•â•â•â•â•â•â•â•â•â•â•â•â•â•â•â•â•â•â•â•â•â•â•â•â•â•â•â•â•â•â•â•â•â•â•â•â•â•
2026-02-20T22:28:59.004Z  INFO  USDC Balance: 0.000000
2026-02-20T22:28:59.004Z  INFO  USDC Allowance: 0.000000
2026-02-20T22:28:59.004Z  INFO  Available: 0.000000 (Balance: 0.000000, Allowance: 0.000000)
2026-02-20T22:28:59.004Z  INFO  â•â•â•â•â•â•â•â•â•â•â•â•â•â•â•â•â•â•â•â•â•â•â•â•â•â•â•â•â•â•â•â•â•â•â•â•â•â•â•
2026-02-20T22:28:59.004Z  INFO  USDC gate: available=0.000000 (balance=0.000000, allowance=0.000000), required>=1

===== LOG END 2026-02-20T22:29:00.637Z pid=2720022 =====
